{
  "contracts/PredictionMarket.sol": {
    "PredictionMarket": {
      "abi": [
        {
          "inputs": [
            {
              "internalType": "address",
              "name": "oracle_addr",
              "type": "address"
            }
          ],
          "stateMutability": "nonpayable",
          "type": "constructor"
        },
        {
          "inputs": [
            {
              "internalType": "uint256",
              "name": "price",
              "type": "uint256"
            },
            {
              "internalType": "uint256",
              "name": "quantity",
              "type": "uint256"
            },
            {
              "internalType": "uint256",
              "name": "outcome",
              "type": "uint256"
            }
          ],
          "name": "bid",
          "outputs": [
            {
              "internalType": "uint256",
              "name": "",
              "type": "uint256"
            }
          ],
          "stateMutability": "payable",
          "type": "function"
        },
        {
          "inputs": [
            {
              "internalType": "uint256",
              "name": "id",
              "type": "uint256"
            },
            {
              "internalType": "uint256",
              "name": "quantity",
              "type": "uint256"
            }
          ],
          "name": "cancel",
          "outputs": [
            {
              "internalType": "uint256",
              "name": "",
              "type": "uint256"
            }
          ],
          "stateMutability": "nonpayable",
          "type": "function"
        },
        {
          "inputs": [],
          "name": "cancelAll",
          "outputs": [
            {
              "internalType": "uint256",
              "name": "",
              "type": "uint256"
            }
          ],
          "stateMutability": "nonpayable",
          "type": "function"
        },
        {
          "inputs": [],
          "name": "redeem",
          "outputs": [
            {
              "internalType": "uint256",
              "name": "",
              "type": "uint256"
            }
          ],
          "stateMutability": "nonpayable",
          "type": "function"
        }
      ],
      "evm": {
        "bytecode": {
          "linkReferences": {},
          "object": "608060405234801561001057600080fd5b506040516112373803806112378339818101604052602081101561003357600080fd5b810190808051906020019092919050505080600560006101000a81548173ffffffffffffffffffffffffffffffffffffffff021916908373ffffffffffffffffffffffffffffffffffffffff160217905550506111a2806100956000396000f3fe60806040526004361061003e5760003560e01c8062efa8951461004357806318cb2b181461009c5780632ac9bf09146100c7578063be040fb01461011d575b600080fd5b34801561004f57600080fd5b506100866004803603604081101561006657600080fd5b810190808035906020019092919080359060200190929190505050610148565b6040518082815260200191505060405180910390f35b3480156100a857600080fd5b506100b16102a6565b6040518082815260200191505060405180910390f35b610107600480360360608110156100dd57600080fd5b8101908080359060200190929190803590602001909291908035906020019092919050505061038b565b6040518082815260200191505060405180910390f35b34801561012957600080fd5b506101326106a4565b6040518082815260200191505060405180910390f35b60008080549050831061015a57600080fd5b3373ffffffffffffffffffffffffffffffffffffffff166000848154811061017e57fe5b906000526020600020906004020160020160009054906101000a900473ffffffffffffffffffffffffffffffffffffffff1673ffffffffffffffffffffffffffffffffffffffff16146101d057600080fd5b6101f882600085815481106101e157fe5b906000526020600020906004020160000154610869565b9150816000848154811061020857fe5b9060005260206000209060040201600001600082825403925050819055506000826000858154811061023657fe5b9060005260206000209060040201600101540290508047101561025557fe5b3373ffffffffffffffffffffffffffffffffffffffff166108fc829081150290604051600060405180830381858888f1935050505015801561029b573d6000803e3d6000fd5b508091505092915050565b6000806000905060005b600160003373ffffffffffffffffffffffffffffffffffffffff1673ffffffffffffffffffffffffffffffffffffffff1681526020019081526020016000208054905081101561038357610372600160003373ffffffffffffffffffffffffffffffffffffffff1673ffffffffffffffffffffffffffffffffffffffff168152602001908152602001600020828154811061034757fe5b9060005260206000200154790100000000000000000000000000000000000000000000000000610148565b8201915080806001019150506102b0565b508091505090565b60006103e8670de0b6b3a76400008502816103a257fe5b0493506000841161041b576040517f08c379a00000000000000000000000000000000000000000000000000000000081526004018080602001828103825260168152602001807f7072696365206d75737420626520706f7369746976650000000000000000000081525060200191505060405180910390fd5b60008311610491576040517f08c379a00000000000000000000000000000000000000000000000000000000081526004018080602001828103825260198152602001807f7175616e74697479206d75737420626520706f7369746976650000000000000081525060200191505060405180910390fd5b600282106104ea576040517f08c379a00000000000000000000000000000000000000000000000000000000081526004018080602001828103825260278152602001806111466027913960400191505060405180910390fd5b8284023414610544576040517f08c379a000000000000000000000000000000000000000000000000000000000815260040180806020018281038252602781526020018061111f6027913960400191505060405180910390fd5b600080805490509050600060405180608001604052808681526020018781526020013373ffffffffffffffffffffffffffffffffffffffff168152602001858152509080600181540180825580915050600190039060005260206000209060040201600090919091909150600082015181600001556020820151816001015560408201518160020160006101000a81548173ffffffffffffffffffffffffffffffffffffffff021916908373ffffffffffffffffffffffffffffffffffffffff160217905550606082015181600301555050600160003373ffffffffffffffffffffffffffffffffffffffff1673ffffffffffffffffffffffffffffffffffffffff1681526020019081526020016000208190806001815401808255809150506001900390600052602060002001600090919091909150556106868382610883565b5b61068f610999565b1561069957610687565b809150509392505050565b600080600560009054906101000a900473ffffffffffffffffffffffffffffffffffffffff16905060008173ffffffffffffffffffffffffffffffffffffffff1663dfbf53ae6040518163ffffffff1660e01b815260040160206040518083038186803b15801561071457600080fd5b505afa158015610728573d6000803e3d6000fd5b505050506040513d602081101561073e57600080fd5b810190808051906020019092919050505090506002811061075e57600080fd5b6000600460003373ffffffffffffffffffffffffffffffffffffffff1673ffffffffffffffffffffffffffffffffffffffff16815260200190815260200160002082600281106107aa57fe5b015490506000600460003373ffffffffffffffffffffffffffffffffffffffff1673ffffffffffffffffffffffffffffffffffffffff16815260200190815260200160002083600281106107fa57fe5b0181905550600067016345785d8a0000820290508047101561081857fe5b3373ffffffffffffffffffffffffffffffffffffffff166108fc829081150290604051600060405180830381858888f1935050505015801561085e573d6000803e3d6000fd5b508094505050505090565b600081831015610879578261087b565b815b905092915050565b600080549050811061089157fe5b6002821061089b57fe5b81600082815481106108a957fe5b906000526020600020906004020160030154146108c257fe5b600282600281106108cf57fe5b01819080600181540180825580915050600190039060005260206000200160009091909190915055600060016002846002811061090857fe5b01805490500390505b60008111156109945760006001808303901c90506109756002856002811061093557fe5b01828154811061094157fe5b90600052602060002001546002866002811061095957fe5b01848154811061096557fe5b9060005260206000200154610b94565b156109805750610994565b61098b848284610c51565b80915050610911565b505050565b600080600090505b6002811015610a0b575b6109b481610d3a565b1580156109c9575060006109c782610d62565b145b156109dc576109d781610dd3565b6109ab565b6109e581610d3a565b806109f8575060006109f682610d62565b115b6109fe57fe5b80806001019150506109a1565b50600080790100000000000000000000000000000000000000000000000000905060005b6002811015610a7457610a4181610d3a565b610a6757610a4e81610fa3565b83019250610a6482610a5f83610d62565b610869565b91505b8080600101915050610a2f565b506000821480610a9d575079010000000000000000000000000000000000000000000000000081145b15610adc57600082148015610acb575079010000000000000000000000000000000000000000000000000081145b610ad157fe5b600092505050610b91565b67016345785d8a0000821015610af757600092505050610b91565b60005b6002811015610b8957610b0c81610d3a565b610b7c57610b1a8183611014565b8160046000610b288461108d565b73ffffffffffffffffffffffffffffffffffffffff1673ffffffffffffffffffffffffffffffffffffffff1681526020019081526020016000208260028110610b6d57fe5b01600082825401925050819055505b8080600101915050610afa565b506001925050505b90565b600080805490508310610ba357fe5b6000805490508210610bb157fe5b81831415610bbb57fe5b60008281548110610bc857fe5b90600052602060002090600402016001015460008481548110610be757fe5b9060005260206000209060040201600101541415610c09578183109050610c4b565b60008281548110610c1657fe5b90600052602060002090600402016001015460008481548110610c3557fe5b9060005260206000209060040201600101541190505b92915050565b60028310610c5b57fe5b60028360028110610c6857fe5b01805490508210610c7557fe5b60028360028110610c8257fe5b01805490508110610c8f57fe5b80821415610c9957fe5b600060028460028110610ca857fe5b018381548110610cb457fe5b9060005260206000200154905060028460028110610cce57fe5b018281548110610cda57fe5b906000526020600020015460028560028110610cf257fe5b018481548110610cfe57fe5b90600052602060002001819055508060028560028110610d1a57fe5b018381548110610d2657fe5b906000526020600020018190555050505050565b600060028210610d4657fe5b600060028360028110610d5557fe5b0180549050149050919050565b600060028210610d6e57fe5b600060028360028110610d7d57fe5b018054905011610d8957fe5b600060028360028110610d9857fe5b01600081548110610da557fe5b906000526020600020015481548110610dba57fe5b9060005260206000209060040201600001549050919050565b60028110610ddd57fe5b610de681610d3a565b15610ded57fe5b600160028260028110610dfc57fe5b01805490501415610e395760028160028110610e1457fe5b01805480610e1e57fe5b60019003818190600052602060002001600090559055610fa0565b610e59816000600160028560028110610e4e57fe5b018054905003610c51565b60028160028110610e6657fe5b01805480610e7057fe5b60019003818190600052602060002001600090559055600080600190505b60028360028110610e9b57fe5b0180549050811015610f9d5760028360028110610eb457fe5b018054905060018201108015610f195750610f1860028460028110610ed557fe5b016001830181548110610ee457fe5b906000526020600020015460028560028110610efc57fe5b018381548110610f0857fe5b9060005260206000200154610b94565b5b15610f275780806001019150505b610f7760028460028110610f3757fe5b018381548110610f4357fe5b906000526020600020015460028560028110610f5b57fe5b018381548110610f6757fe5b9060005260206000200154610b94565b15610f8157610f9d565b610f8c838383610c51565b80915060018083901b019050610e8e565b50505b50565b600060028210610faf57fe5b600060028360028110610fbe57fe5b018054905011610fca57fe5b600060028360028110610fd957fe5b01600081548110610fe657fe5b906000526020600020015481548110610ffb57fe5b9060005260206000209060040201600101549050919050565b6002821061101e57fe5b60006002836002811061102d57fe5b01805490501161103957fe5b8060006002846002811061104957fe5b0160008154811061105657fe5b90600052602060002001548154811061106b57fe5b9060005260206000209060040201600001600082825403925050819055505050565b60006002821061109957fe5b6000600283600281106110a857fe5b0180549050116110b457fe5b6000600283600281106110c357fe5b016000815481106110d057fe5b9060005260206000200154815481106110e557fe5b906000526020600020906004020160020160009054906101000a900473ffffffffffffffffffffffffffffffffffffffff16905091905056fe70726f766964652076616c756520657175616c20746f2070726963652078207175616e746974796f7574636f6d65206973206265747765656e2030202e2e2e204e554d5f4f5554434f4d45532d31a2646970667358221220d0bcc69e302903b55a75b0d1dc4ed50bb0ae17b939c229a3c63d4fba9789594a64736f6c63430007030033",
          "opcodes": "PUSH1 0x80 PUSH1 0x40 MSTORE CALLVALUE DUP1 ISZERO PUSH2 0x10 JUMPI PUSH1 0x0 DUP1 REVERT JUMPDEST POP PUSH1 0x40 MLOAD PUSH2 0x1237 CODESIZE SUB DUP1 PUSH2 0x1237 DUP4 CODECOPY DUP2 DUP2 ADD PUSH1 0x40 MSTORE PUSH1 0x20 DUP2 LT ISZERO PUSH2 0x33 JUMPI PUSH1 0x0 DUP1 REVERT JUMPDEST DUP2 ADD SWAP1 DUP1 DUP1 MLOAD SWAP1 PUSH1 0x20 ADD SWAP1 SWAP3 SWAP2 SWAP1 POP POP POP DUP1 PUSH1 0x5 PUSH1 0x0 PUSH2 0x100 EXP DUP2 SLOAD DUP2 PUSH20 0xFFFFFFFFFFFFFFFFFFFFFFFFFFFFFFFFFFFFFFFF MUL NOT AND SWAP1 DUP4 PUSH20 0xFFFFFFFFFFFFFFFFFFFFFFFFFFFFFFFFFFFFFFFF AND MUL OR SWAP1 SSTORE POP POP PUSH2 0x11A2 DUP1 PUSH2 0x95 PUSH1 0x0 CODECOPY PUSH1 0x0 RETURN INVALID PUSH1 0x80 PUSH1 0x40 MSTORE PUSH1 0x4 CALLDATASIZE LT PUSH2 0x3E JUMPI PUSH1 0x0 CALLDATALOAD PUSH1 0xE0 SHR DUP1 PUSH3 0xEFA895 EQ PUSH2 0x43 JUMPI DUP1 PUSH4 0x18CB2B18 EQ PUSH2 0x9C JUMPI DUP1 PUSH4 0x2AC9BF09 EQ PUSH2 0xC7 JUMPI DUP1 PUSH4 0xBE040FB0 EQ PUSH2 0x11D JUMPI JUMPDEST PUSH1 0x0 DUP1 REVERT JUMPDEST CALLVALUE DUP1 ISZERO PUSH2 0x4F JUMPI PUSH1 0x0 DUP1 REVERT JUMPDEST POP PUSH2 0x86 PUSH1 0x4 DUP1 CALLDATASIZE SUB PUSH1 0x40 DUP2 LT ISZERO PUSH2 0x66 JUMPI PUSH1 0x0 DUP1 REVERT JUMPDEST DUP2 ADD SWAP1 DUP1 DUP1 CALLDATALOAD SWAP1 PUSH1 0x20 ADD SWAP1 SWAP3 SWAP2 SWAP1 DUP1 CALLDATALOAD SWAP1 PUSH1 0x20 ADD SWAP1 SWAP3 SWAP2 SWAP1 POP POP POP PUSH2 0x148 JUMP JUMPDEST PUSH1 0x40 MLOAD DUP1 DUP3 DUP2 MSTORE PUSH1 0x20 ADD SWAP2 POP POP PUSH1 0x40 MLOAD DUP1 SWAP2 SUB SWAP1 RETURN JUMPDEST CALLVALUE DUP1 ISZERO PUSH2 0xA8 JUMPI PUSH1 0x0 DUP1 REVERT JUMPDEST POP PUSH2 0xB1 PUSH2 0x2A6 JUMP JUMPDEST PUSH1 0x40 MLOAD DUP1 DUP3 DUP2 MSTORE PUSH1 0x20 ADD SWAP2 POP POP PUSH1 0x40 MLOAD DUP1 SWAP2 SUB SWAP1 RETURN JUMPDEST PUSH2 0x107 PUSH1 0x4 DUP1 CALLDATASIZE SUB PUSH1 0x60 DUP2 LT ISZERO PUSH2 0xDD JUMPI PUSH1 0x0 DUP1 REVERT JUMPDEST DUP2 ADD SWAP1 DUP1 DUP1 CALLDATALOAD SWAP1 PUSH1 0x20 ADD SWAP1 SWAP3 SWAP2 SWAP1 DUP1 CALLDATALOAD SWAP1 PUSH1 0x20 ADD SWAP1 SWAP3 SWAP2 SWAP1 DUP1 CALLDATALOAD SWAP1 PUSH1 0x20 ADD SWAP1 SWAP3 SWAP2 SWAP1 POP POP POP PUSH2 0x38B JUMP JUMPDEST PUSH1 0x40 MLOAD DUP1 DUP3 DUP2 MSTORE PUSH1 0x20 ADD SWAP2 POP POP PUSH1 0x40 MLOAD DUP1 SWAP2 SUB SWAP1 RETURN JUMPDEST CALLVALUE DUP1 ISZERO PUSH2 0x129 JUMPI PUSH1 0x0 DUP1 REVERT JUMPDEST POP PUSH2 0x132 PUSH2 0x6A4 JUMP JUMPDEST PUSH1 0x40 MLOAD DUP1 DUP3 DUP2 MSTORE PUSH1 0x20 ADD SWAP2 POP POP PUSH1 0x40 MLOAD DUP1 SWAP2 SUB SWAP1 RETURN JUMPDEST PUSH1 0x0 DUP1 DUP1 SLOAD SWAP1 POP DUP4 LT PUSH2 0x15A JUMPI PUSH1 0x0 DUP1 REVERT JUMPDEST CALLER PUSH20 0xFFFFFFFFFFFFFFFFFFFFFFFFFFFFFFFFFFFFFFFF AND PUSH1 0x0 DUP5 DUP2 SLOAD DUP2 LT PUSH2 0x17E JUMPI INVALID JUMPDEST SWAP1 PUSH1 0x0 MSTORE PUSH1 0x20 PUSH1 0x0 KECCAK256 SWAP1 PUSH1 0x4 MUL ADD PUSH1 0x2 ADD PUSH1 0x0 SWAP1 SLOAD SWAP1 PUSH2 0x100 EXP SWAP1 DIV PUSH20 0xFFFFFFFFFFFFFFFFFFFFFFFFFFFFFFFFFFFFFFFF AND PUSH20 0xFFFFFFFFFFFFFFFFFFFFFFFFFFFFFFFFFFFFFFFF AND EQ PUSH2 0x1D0 JUMPI PUSH1 0x0 DUP1 REVERT JUMPDEST PUSH2 0x1F8 DUP3 PUSH1 0x0 DUP6 DUP2 SLOAD DUP2 LT PUSH2 0x1E1 JUMPI INVALID JUMPDEST SWAP1 PUSH1 0x0 MSTORE PUSH1 0x20 PUSH1 0x0 KECCAK256 SWAP1 PUSH1 0x4 MUL ADD PUSH1 0x0 ADD SLOAD PUSH2 0x869 JUMP JUMPDEST SWAP2 POP DUP2 PUSH1 0x0 DUP5 DUP2 SLOAD DUP2 LT PUSH2 0x208 JUMPI INVALID JUMPDEST SWAP1 PUSH1 0x0 MSTORE PUSH1 0x20 PUSH1 0x0 KECCAK256 SWAP1 PUSH1 0x4 MUL ADD PUSH1 0x0 ADD PUSH1 0x0 DUP3 DUP3 SLOAD SUB SWAP3 POP POP DUP2 SWAP1 SSTORE POP PUSH1 0x0 DUP3 PUSH1 0x0 DUP6 DUP2 SLOAD DUP2 LT PUSH2 0x236 JUMPI INVALID JUMPDEST SWAP1 PUSH1 0x0 MSTORE PUSH1 0x20 PUSH1 0x0 KECCAK256 SWAP1 PUSH1 0x4 MUL ADD PUSH1 0x1 ADD SLOAD MUL SWAP1 POP DUP1 SELFBALANCE LT ISZERO PUSH2 0x255 JUMPI INVALID JUMPDEST CALLER PUSH20 0xFFFFFFFFFFFFFFFFFFFFFFFFFFFFFFFFFFFFFFFF AND PUSH2 0x8FC DUP3 SWAP1 DUP2 ISZERO MUL SWAP1 PUSH1 0x40 MLOAD PUSH1 0x0 PUSH1 0x40 MLOAD DUP1 DUP4 SUB DUP2 DUP6 DUP9 DUP9 CALL SWAP4 POP POP POP POP ISZERO DUP1 ISZERO PUSH2 0x29B JUMPI RETURNDATASIZE PUSH1 0x0 DUP1 RETURNDATACOPY RETURNDATASIZE PUSH1 0x0 REVERT JUMPDEST POP DUP1 SWAP2 POP POP SWAP3 SWAP2 POP POP JUMP JUMPDEST PUSH1 0x0 DUP1 PUSH1 0x0 SWAP1 POP PUSH1 0x0 JUMPDEST PUSH1 0x1 PUSH1 0x0 CALLER PUSH20 0xFFFFFFFFFFFFFFFFFFFFFFFFFFFFFFFFFFFFFFFF AND PUSH20 0xFFFFFFFFFFFFFFFFFFFFFFFFFFFFFFFFFFFFFFFF AND DUP2 MSTORE PUSH1 0x20 ADD SWAP1 DUP2 MSTORE PUSH1 0x20 ADD PUSH1 0x0 KECCAK256 DUP1 SLOAD SWAP1 POP DUP2 LT ISZERO PUSH2 0x383 JUMPI PUSH2 0x372 PUSH1 0x1 PUSH1 0x0 CALLER PUSH20 0xFFFFFFFFFFFFFFFFFFFFFFFFFFFFFFFFFFFFFFFF AND PUSH20 0xFFFFFFFFFFFFFFFFFFFFFFFFFFFFFFFFFFFFFFFF AND DUP2 MSTORE PUSH1 0x20 ADD SWAP1 DUP2 MSTORE PUSH1 0x20 ADD PUSH1 0x0 KECCAK256 DUP3 DUP2 SLOAD DUP2 LT PUSH2 0x347 JUMPI INVALID JUMPDEST SWAP1 PUSH1 0x0 MSTORE PUSH1 0x20 PUSH1 0x0 KECCAK256 ADD SLOAD PUSH26 0x100000000000000000000000000000000000000000000000000 PUSH2 0x148 JUMP JUMPDEST DUP3 ADD SWAP2 POP DUP1 DUP1 PUSH1 0x1 ADD SWAP2 POP POP PUSH2 0x2B0 JUMP JUMPDEST POP DUP1 SWAP2 POP POP SWAP1 JUMP JUMPDEST PUSH1 0x0 PUSH2 0x3E8 PUSH8 0xDE0B6B3A7640000 DUP6 MUL DUP2 PUSH2 0x3A2 JUMPI INVALID JUMPDEST DIV SWAP4 POP PUSH1 0x0 DUP5 GT PUSH2 0x41B JUMPI PUSH1 0x40 MLOAD PUSH32 0x8C379A000000000000000000000000000000000000000000000000000000000 DUP2 MSTORE PUSH1 0x4 ADD DUP1 DUP1 PUSH1 0x20 ADD DUP3 DUP2 SUB DUP3 MSTORE PUSH1 0x16 DUP2 MSTORE PUSH1 0x20 ADD DUP1 PUSH32 0x7072696365206D75737420626520706F73697469766500000000000000000000 DUP2 MSTORE POP PUSH1 0x20 ADD SWAP2 POP POP PUSH1 0x40 MLOAD DUP1 SWAP2 SUB SWAP1 REVERT JUMPDEST PUSH1 0x0 DUP4 GT PUSH2 0x491 JUMPI PUSH1 0x40 MLOAD PUSH32 0x8C379A000000000000000000000000000000000000000000000000000000000 DUP2 MSTORE PUSH1 0x4 ADD DUP1 DUP1 PUSH1 0x20 ADD DUP3 DUP2 SUB DUP3 MSTORE PUSH1 0x19 DUP2 MSTORE PUSH1 0x20 ADD DUP1 PUSH32 0x7175616E74697479206D75737420626520706F73697469766500000000000000 DUP2 MSTORE POP PUSH1 0x20 ADD SWAP2 POP POP PUSH1 0x40 MLOAD DUP1 SWAP2 SUB SWAP1 REVERT JUMPDEST PUSH1 0x2 DUP3 LT PUSH2 0x4EA JUMPI PUSH1 0x40 MLOAD PUSH32 0x8C379A000000000000000000000000000000000000000000000000000000000 DUP2 MSTORE PUSH1 0x4 ADD DUP1 DUP1 PUSH1 0x20 ADD DUP3 DUP2 SUB DUP3 MSTORE PUSH1 0x27 DUP2 MSTORE PUSH1 0x20 ADD DUP1 PUSH2 0x1146 PUSH1 0x27 SWAP2 CODECOPY PUSH1 0x40 ADD SWAP2 POP POP PUSH1 0x40 MLOAD DUP1 SWAP2 SUB SWAP1 REVERT JUMPDEST DUP3 DUP5 MUL CALLVALUE EQ PUSH2 0x544 JUMPI PUSH1 0x40 MLOAD PUSH32 0x8C379A000000000000000000000000000000000000000000000000000000000 DUP2 MSTORE PUSH1 0x4 ADD DUP1 DUP1 PUSH1 0x20 ADD DUP3 DUP2 SUB DUP3 MSTORE PUSH1 0x27 DUP2 MSTORE PUSH1 0x20 ADD DUP1 PUSH2 0x111F PUSH1 0x27 SWAP2 CODECOPY PUSH1 0x40 ADD SWAP2 POP POP PUSH1 0x40 MLOAD DUP1 SWAP2 SUB SWAP1 REVERT JUMPDEST PUSH1 0x0 DUP1 DUP1 SLOAD SWAP1 POP SWAP1 POP PUSH1 0x0 PUSH1 0x40 MLOAD DUP1 PUSH1 0x80 ADD PUSH1 0x40 MSTORE DUP1 DUP7 DUP2 MSTORE PUSH1 0x20 ADD DUP8 DUP2 MSTORE PUSH1 0x20 ADD CALLER PUSH20 0xFFFFFFFFFFFFFFFFFFFFFFFFFFFFFFFFFFFFFFFF AND DUP2 MSTORE PUSH1 0x20 ADD DUP6 DUP2 MSTORE POP SWAP1 DUP1 PUSH1 0x1 DUP2 SLOAD ADD DUP1 DUP3 SSTORE DUP1 SWAP2 POP POP PUSH1 0x1 SWAP1 SUB SWAP1 PUSH1 0x0 MSTORE PUSH1 0x20 PUSH1 0x0 KECCAK256 SWAP1 PUSH1 0x4 MUL ADD PUSH1 0x0 SWAP1 SWAP2 SWAP1 SWAP2 SWAP1 SWAP2 POP PUSH1 0x0 DUP3 ADD MLOAD DUP2 PUSH1 0x0 ADD SSTORE PUSH1 0x20 DUP3 ADD MLOAD DUP2 PUSH1 0x1 ADD SSTORE PUSH1 0x40 DUP3 ADD MLOAD DUP2 PUSH1 0x2 ADD PUSH1 0x0 PUSH2 0x100 EXP DUP2 SLOAD DUP2 PUSH20 0xFFFFFFFFFFFFFFFFFFFFFFFFFFFFFFFFFFFFFFFF MUL NOT AND SWAP1 DUP4 PUSH20 0xFFFFFFFFFFFFFFFFFFFFFFFFFFFFFFFFFFFFFFFF AND MUL OR SWAP1 SSTORE POP PUSH1 0x60 DUP3 ADD MLOAD DUP2 PUSH1 0x3 ADD SSTORE POP POP PUSH1 0x1 PUSH1 0x0 CALLER PUSH20 0xFFFFFFFFFFFFFFFFFFFFFFFFFFFFFFFFFFFFFFFF AND PUSH20 0xFFFFFFFFFFFFFFFFFFFFFFFFFFFFFFFFFFFFFFFF AND DUP2 MSTORE PUSH1 0x20 ADD SWAP1 DUP2 MSTORE PUSH1 0x20 ADD PUSH1 0x0 KECCAK256 DUP2 SWAP1 DUP1 PUSH1 0x1 DUP2 SLOAD ADD DUP1 DUP3 SSTORE DUP1 SWAP2 POP POP PUSH1 0x1 SWAP1 SUB SWAP1 PUSH1 0x0 MSTORE PUSH1 0x20 PUSH1 0x0 KECCAK256 ADD PUSH1 0x0 SWAP1 SWAP2 SWAP1 SWAP2 SWAP1 SWAP2 POP SSTORE PUSH2 0x686 DUP4 DUP3 PUSH2 0x883 JUMP JUMPDEST JUMPDEST PUSH2 0x68F PUSH2 0x999 JUMP JUMPDEST ISZERO PUSH2 0x699 JUMPI PUSH2 0x687 JUMP JUMPDEST DUP1 SWAP2 POP POP SWAP4 SWAP3 POP POP POP JUMP JUMPDEST PUSH1 0x0 DUP1 PUSH1 0x5 PUSH1 0x0 SWAP1 SLOAD SWAP1 PUSH2 0x100 EXP SWAP1 DIV PUSH20 0xFFFFFFFFFFFFFFFFFFFFFFFFFFFFFFFFFFFFFFFF AND SWAP1 POP PUSH1 0x0 DUP2 PUSH20 0xFFFFFFFFFFFFFFFFFFFFFFFFFFFFFFFFFFFFFFFF AND PUSH4 0xDFBF53AE PUSH1 0x40 MLOAD DUP2 PUSH4 0xFFFFFFFF AND PUSH1 0xE0 SHL DUP2 MSTORE PUSH1 0x4 ADD PUSH1 0x20 PUSH1 0x40 MLOAD DUP1 DUP4 SUB DUP2 DUP7 DUP1 EXTCODESIZE ISZERO DUP1 ISZERO PUSH2 0x714 JUMPI PUSH1 0x0 DUP1 REVERT JUMPDEST POP GAS STATICCALL ISZERO DUP1 ISZERO PUSH2 0x728 JUMPI RETURNDATASIZE PUSH1 0x0 DUP1 RETURNDATACOPY RETURNDATASIZE PUSH1 0x0 REVERT JUMPDEST POP POP POP POP PUSH1 0x40 MLOAD RETURNDATASIZE PUSH1 0x20 DUP2 LT ISZERO PUSH2 0x73E JUMPI PUSH1 0x0 DUP1 REVERT JUMPDEST DUP2 ADD SWAP1 DUP1 DUP1 MLOAD SWAP1 PUSH1 0x20 ADD SWAP1 SWAP3 SWAP2 SWAP1 POP POP POP SWAP1 POP PUSH1 0x2 DUP2 LT PUSH2 0x75E JUMPI PUSH1 0x0 DUP1 REVERT JUMPDEST PUSH1 0x0 PUSH1 0x4 PUSH1 0x0 CALLER PUSH20 0xFFFFFFFFFFFFFFFFFFFFFFFFFFFFFFFFFFFFFFFF AND PUSH20 0xFFFFFFFFFFFFFFFFFFFFFFFFFFFFFFFFFFFFFFFF AND DUP2 MSTORE PUSH1 0x20 ADD SWAP1 DUP2 MSTORE PUSH1 0x20 ADD PUSH1 0x0 KECCAK256 DUP3 PUSH1 0x2 DUP2 LT PUSH2 0x7AA JUMPI INVALID JUMPDEST ADD SLOAD SWAP1 POP PUSH1 0x0 PUSH1 0x4 PUSH1 0x0 CALLER PUSH20 0xFFFFFFFFFFFFFFFFFFFFFFFFFFFFFFFFFFFFFFFF AND PUSH20 0xFFFFFFFFFFFFFFFFFFFFFFFFFFFFFFFFFFFFFFFF AND DUP2 MSTORE PUSH1 0x20 ADD SWAP1 DUP2 MSTORE PUSH1 0x20 ADD PUSH1 0x0 KECCAK256 DUP4 PUSH1 0x2 DUP2 LT PUSH2 0x7FA JUMPI INVALID JUMPDEST ADD DUP2 SWAP1 SSTORE POP PUSH1 0x0 PUSH8 0x16345785D8A0000 DUP3 MUL SWAP1 POP DUP1 SELFBALANCE LT ISZERO PUSH2 0x818 JUMPI INVALID JUMPDEST CALLER PUSH20 0xFFFFFFFFFFFFFFFFFFFFFFFFFFFFFFFFFFFFFFFF AND PUSH2 0x8FC DUP3 SWAP1 DUP2 ISZERO MUL SWAP1 PUSH1 0x40 MLOAD PUSH1 0x0 PUSH1 0x40 MLOAD DUP1 DUP4 SUB DUP2 DUP6 DUP9 DUP9 CALL SWAP4 POP POP POP POP ISZERO DUP1 ISZERO PUSH2 0x85E JUMPI RETURNDATASIZE PUSH1 0x0 DUP1 RETURNDATACOPY RETURNDATASIZE PUSH1 0x0 REVERT JUMPDEST POP DUP1 SWAP5 POP POP POP POP POP SWAP1 JUMP JUMPDEST PUSH1 0x0 DUP2 DUP4 LT ISZERO PUSH2 0x879 JUMPI DUP3 PUSH2 0x87B JUMP JUMPDEST DUP2 JUMPDEST SWAP1 POP SWAP3 SWAP2 POP POP JUMP JUMPDEST PUSH1 0x0 DUP1 SLOAD SWAP1 POP DUP2 LT PUSH2 0x891 JUMPI INVALID JUMPDEST PUSH1 0x2 DUP3 LT PUSH2 0x89B JUMPI INVALID JUMPDEST DUP2 PUSH1 0x0 DUP3 DUP2 SLOAD DUP2 LT PUSH2 0x8A9 JUMPI INVALID JUMPDEST SWAP1 PUSH1 0x0 MSTORE PUSH1 0x20 PUSH1 0x0 KECCAK256 SWAP1 PUSH1 0x4 MUL ADD PUSH1 0x3 ADD SLOAD EQ PUSH2 0x8C2 JUMPI INVALID JUMPDEST PUSH1 0x2 DUP3 PUSH1 0x2 DUP2 LT PUSH2 0x8CF JUMPI INVALID JUMPDEST ADD DUP2 SWAP1 DUP1 PUSH1 0x1 DUP2 SLOAD ADD DUP1 DUP3 SSTORE DUP1 SWAP2 POP POP PUSH1 0x1 SWAP1 SUB SWAP1 PUSH1 0x0 MSTORE PUSH1 0x20 PUSH1 0x0 KECCAK256 ADD PUSH1 0x0 SWAP1 SWAP2 SWAP1 SWAP2 SWAP1 SWAP2 POP SSTORE PUSH1 0x0 PUSH1 0x1 PUSH1 0x2 DUP5 PUSH1 0x2 DUP2 LT PUSH2 0x908 JUMPI INVALID JUMPDEST ADD DUP1 SLOAD SWAP1 POP SUB SWAP1 POP JUMPDEST PUSH1 0x0 DUP2 GT ISZERO PUSH2 0x994 JUMPI PUSH1 0x0 PUSH1 0x1 DUP1 DUP4 SUB SWAP1 SHR SWAP1 POP PUSH2 0x975 PUSH1 0x2 DUP6 PUSH1 0x2 DUP2 LT PUSH2 0x935 JUMPI INVALID JUMPDEST ADD DUP3 DUP2 SLOAD DUP2 LT PUSH2 0x941 JUMPI INVALID JUMPDEST SWAP1 PUSH1 0x0 MSTORE PUSH1 0x20 PUSH1 0x0 KECCAK256 ADD SLOAD PUSH1 0x2 DUP7 PUSH1 0x2 DUP2 LT PUSH2 0x959 JUMPI INVALID JUMPDEST ADD DUP5 DUP2 SLOAD DUP2 LT PUSH2 0x965 JUMPI INVALID JUMPDEST SWAP1 PUSH1 0x0 MSTORE PUSH1 0x20 PUSH1 0x0 KECCAK256 ADD SLOAD PUSH2 0xB94 JUMP JUMPDEST ISZERO PUSH2 0x980 JUMPI POP PUSH2 0x994 JUMP JUMPDEST PUSH2 0x98B DUP5 DUP3 DUP5 PUSH2 0xC51 JUMP JUMPDEST DUP1 SWAP2 POP POP PUSH2 0x911 JUMP JUMPDEST POP POP POP JUMP JUMPDEST PUSH1 0x0 DUP1 PUSH1 0x0 SWAP1 POP JUMPDEST PUSH1 0x2 DUP2 LT ISZERO PUSH2 0xA0B JUMPI JUMPDEST PUSH2 0x9B4 DUP2 PUSH2 0xD3A JUMP JUMPDEST ISZERO DUP1 ISZERO PUSH2 0x9C9 JUMPI POP PUSH1 0x0 PUSH2 0x9C7 DUP3 PUSH2 0xD62 JUMP JUMPDEST EQ JUMPDEST ISZERO PUSH2 0x9DC JUMPI PUSH2 0x9D7 DUP2 PUSH2 0xDD3 JUMP JUMPDEST PUSH2 0x9AB JUMP JUMPDEST PUSH2 0x9E5 DUP2 PUSH2 0xD3A JUMP JUMPDEST DUP1 PUSH2 0x9F8 JUMPI POP PUSH1 0x0 PUSH2 0x9F6 DUP3 PUSH2 0xD62 JUMP JUMPDEST GT JUMPDEST PUSH2 0x9FE JUMPI INVALID JUMPDEST DUP1 DUP1 PUSH1 0x1 ADD SWAP2 POP POP PUSH2 0x9A1 JUMP JUMPDEST POP PUSH1 0x0 DUP1 PUSH26 0x100000000000000000000000000000000000000000000000000 SWAP1 POP PUSH1 0x0 JUMPDEST PUSH1 0x2 DUP2 LT ISZERO PUSH2 0xA74 JUMPI PUSH2 0xA41 DUP2 PUSH2 0xD3A JUMP JUMPDEST PUSH2 0xA67 JUMPI PUSH2 0xA4E DUP2 PUSH2 0xFA3 JUMP JUMPDEST DUP4 ADD SWAP3 POP PUSH2 0xA64 DUP3 PUSH2 0xA5F DUP4 PUSH2 0xD62 JUMP JUMPDEST PUSH2 0x869 JUMP JUMPDEST SWAP2 POP JUMPDEST DUP1 DUP1 PUSH1 0x1 ADD SWAP2 POP POP PUSH2 0xA2F JUMP JUMPDEST POP PUSH1 0x0 DUP3 EQ DUP1 PUSH2 0xA9D JUMPI POP PUSH26 0x100000000000000000000000000000000000000000000000000 DUP2 EQ JUMPDEST ISZERO PUSH2 0xADC JUMPI PUSH1 0x0 DUP3 EQ DUP1 ISZERO PUSH2 0xACB JUMPI POP PUSH26 0x100000000000000000000000000000000000000000000000000 DUP2 EQ JUMPDEST PUSH2 0xAD1 JUMPI INVALID JUMPDEST PUSH1 0x0 SWAP3 POP POP POP PUSH2 0xB91 JUMP JUMPDEST PUSH8 0x16345785D8A0000 DUP3 LT ISZERO PUSH2 0xAF7 JUMPI PUSH1 0x0 SWAP3 POP POP POP PUSH2 0xB91 JUMP JUMPDEST PUSH1 0x0 JUMPDEST PUSH1 0x2 DUP2 LT ISZERO PUSH2 0xB89 JUMPI PUSH2 0xB0C DUP2 PUSH2 0xD3A JUMP JUMPDEST PUSH2 0xB7C JUMPI PUSH2 0xB1A DUP2 DUP4 PUSH2 0x1014 JUMP JUMPDEST DUP2 PUSH1 0x4 PUSH1 0x0 PUSH2 0xB28 DUP5 PUSH2 0x108D JUMP JUMPDEST PUSH20 0xFFFFFFFFFFFFFFFFFFFFFFFFFFFFFFFFFFFFFFFF AND PUSH20 0xFFFFFFFFFFFFFFFFFFFFFFFFFFFFFFFFFFFFFFFF AND DUP2 MSTORE PUSH1 0x20 ADD SWAP1 DUP2 MSTORE PUSH1 0x20 ADD PUSH1 0x0 KECCAK256 DUP3 PUSH1 0x2 DUP2 LT PUSH2 0xB6D JUMPI INVALID JUMPDEST ADD PUSH1 0x0 DUP3 DUP3 SLOAD ADD SWAP3 POP POP DUP2 SWAP1 SSTORE POP JUMPDEST DUP1 DUP1 PUSH1 0x1 ADD SWAP2 POP POP PUSH2 0xAFA JUMP JUMPDEST POP PUSH1 0x1 SWAP3 POP POP POP JUMPDEST SWAP1 JUMP JUMPDEST PUSH1 0x0 DUP1 DUP1 SLOAD SWAP1 POP DUP4 LT PUSH2 0xBA3 JUMPI INVALID JUMPDEST PUSH1 0x0 DUP1 SLOAD SWAP1 POP DUP3 LT PUSH2 0xBB1 JUMPI INVALID JUMPDEST DUP2 DUP4 EQ ISZERO PUSH2 0xBBB JUMPI INVALID JUMPDEST PUSH1 0x0 DUP3 DUP2 SLOAD DUP2 LT PUSH2 0xBC8 JUMPI INVALID JUMPDEST SWAP1 PUSH1 0x0 MSTORE PUSH1 0x20 PUSH1 0x0 KECCAK256 SWAP1 PUSH1 0x4 MUL ADD PUSH1 0x1 ADD SLOAD PUSH1 0x0 DUP5 DUP2 SLOAD DUP2 LT PUSH2 0xBE7 JUMPI INVALID JUMPDEST SWAP1 PUSH1 0x0 MSTORE PUSH1 0x20 PUSH1 0x0 KECCAK256 SWAP1 PUSH1 0x4 MUL ADD PUSH1 0x1 ADD SLOAD EQ ISZERO PUSH2 0xC09 JUMPI DUP2 DUP4 LT SWAP1 POP PUSH2 0xC4B JUMP JUMPDEST PUSH1 0x0 DUP3 DUP2 SLOAD DUP2 LT PUSH2 0xC16 JUMPI INVALID JUMPDEST SWAP1 PUSH1 0x0 MSTORE PUSH1 0x20 PUSH1 0x0 KECCAK256 SWAP1 PUSH1 0x4 MUL ADD PUSH1 0x1 ADD SLOAD PUSH1 0x0 DUP5 DUP2 SLOAD DUP2 LT PUSH2 0xC35 JUMPI INVALID JUMPDEST SWAP1 PUSH1 0x0 MSTORE PUSH1 0x20 PUSH1 0x0 KECCAK256 SWAP1 PUSH1 0x4 MUL ADD PUSH1 0x1 ADD SLOAD GT SWAP1 POP JUMPDEST SWAP3 SWAP2 POP POP JUMP JUMPDEST PUSH1 0x2 DUP4 LT PUSH2 0xC5B JUMPI INVALID JUMPDEST PUSH1 0x2 DUP4 PUSH1 0x2 DUP2 LT PUSH2 0xC68 JUMPI INVALID JUMPDEST ADD DUP1 SLOAD SWAP1 POP DUP3 LT PUSH2 0xC75 JUMPI INVALID JUMPDEST PUSH1 0x2 DUP4 PUSH1 0x2 DUP2 LT PUSH2 0xC82 JUMPI INVALID JUMPDEST ADD DUP1 SLOAD SWAP1 POP DUP2 LT PUSH2 0xC8F JUMPI INVALID JUMPDEST DUP1 DUP3 EQ ISZERO PUSH2 0xC99 JUMPI INVALID JUMPDEST PUSH1 0x0 PUSH1 0x2 DUP5 PUSH1 0x2 DUP2 LT PUSH2 0xCA8 JUMPI INVALID JUMPDEST ADD DUP4 DUP2 SLOAD DUP2 LT PUSH2 0xCB4 JUMPI INVALID JUMPDEST SWAP1 PUSH1 0x0 MSTORE PUSH1 0x20 PUSH1 0x0 KECCAK256 ADD SLOAD SWAP1 POP PUSH1 0x2 DUP5 PUSH1 0x2 DUP2 LT PUSH2 0xCCE JUMPI INVALID JUMPDEST ADD DUP3 DUP2 SLOAD DUP2 LT PUSH2 0xCDA JUMPI INVALID JUMPDEST SWAP1 PUSH1 0x0 MSTORE PUSH1 0x20 PUSH1 0x0 KECCAK256 ADD SLOAD PUSH1 0x2 DUP6 PUSH1 0x2 DUP2 LT PUSH2 0xCF2 JUMPI INVALID JUMPDEST ADD DUP5 DUP2 SLOAD DUP2 LT PUSH2 0xCFE JUMPI INVALID JUMPDEST SWAP1 PUSH1 0x0 MSTORE PUSH1 0x20 PUSH1 0x0 KECCAK256 ADD DUP2 SWAP1 SSTORE POP DUP1 PUSH1 0x2 DUP6 PUSH1 0x2 DUP2 LT PUSH2 0xD1A JUMPI INVALID JUMPDEST ADD DUP4 DUP2 SLOAD DUP2 LT PUSH2 0xD26 JUMPI INVALID JUMPDEST SWAP1 PUSH1 0x0 MSTORE PUSH1 0x20 PUSH1 0x0 KECCAK256 ADD DUP2 SWAP1 SSTORE POP POP POP POP POP JUMP JUMPDEST PUSH1 0x0 PUSH1 0x2 DUP3 LT PUSH2 0xD46 JUMPI INVALID JUMPDEST PUSH1 0x0 PUSH1 0x2 DUP4 PUSH1 0x2 DUP2 LT PUSH2 0xD55 JUMPI INVALID JUMPDEST ADD DUP1 SLOAD SWAP1 POP EQ SWAP1 POP SWAP2 SWAP1 POP JUMP JUMPDEST PUSH1 0x0 PUSH1 0x2 DUP3 LT PUSH2 0xD6E JUMPI INVALID JUMPDEST PUSH1 0x0 PUSH1 0x2 DUP4 PUSH1 0x2 DUP2 LT PUSH2 0xD7D JUMPI INVALID JUMPDEST ADD DUP1 SLOAD SWAP1 POP GT PUSH2 0xD89 JUMPI INVALID JUMPDEST PUSH1 0x0 PUSH1 0x2 DUP4 PUSH1 0x2 DUP2 LT PUSH2 0xD98 JUMPI INVALID JUMPDEST ADD PUSH1 0x0 DUP2 SLOAD DUP2 LT PUSH2 0xDA5 JUMPI INVALID JUMPDEST SWAP1 PUSH1 0x0 MSTORE PUSH1 0x20 PUSH1 0x0 KECCAK256 ADD SLOAD DUP2 SLOAD DUP2 LT PUSH2 0xDBA JUMPI INVALID JUMPDEST SWAP1 PUSH1 0x0 MSTORE PUSH1 0x20 PUSH1 0x0 KECCAK256 SWAP1 PUSH1 0x4 MUL ADD PUSH1 0x0 ADD SLOAD SWAP1 POP SWAP2 SWAP1 POP JUMP JUMPDEST PUSH1 0x2 DUP2 LT PUSH2 0xDDD JUMPI INVALID JUMPDEST PUSH2 0xDE6 DUP2 PUSH2 0xD3A JUMP JUMPDEST ISZERO PUSH2 0xDED JUMPI INVALID JUMPDEST PUSH1 0x1 PUSH1 0x2 DUP3 PUSH1 0x2 DUP2 LT PUSH2 0xDFC JUMPI INVALID JUMPDEST ADD DUP1 SLOAD SWAP1 POP EQ ISZERO PUSH2 0xE39 JUMPI PUSH1 0x2 DUP2 PUSH1 0x2 DUP2 LT PUSH2 0xE14 JUMPI INVALID JUMPDEST ADD DUP1 SLOAD DUP1 PUSH2 0xE1E JUMPI INVALID JUMPDEST PUSH1 0x1 SWAP1 SUB DUP2 DUP2 SWAP1 PUSH1 0x0 MSTORE PUSH1 0x20 PUSH1 0x0 KECCAK256 ADD PUSH1 0x0 SWAP1 SSTORE SWAP1 SSTORE PUSH2 0xFA0 JUMP JUMPDEST PUSH2 0xE59 DUP2 PUSH1 0x0 PUSH1 0x1 PUSH1 0x2 DUP6 PUSH1 0x2 DUP2 LT PUSH2 0xE4E JUMPI INVALID JUMPDEST ADD DUP1 SLOAD SWAP1 POP SUB PUSH2 0xC51 JUMP JUMPDEST PUSH1 0x2 DUP2 PUSH1 0x2 DUP2 LT PUSH2 0xE66 JUMPI INVALID JUMPDEST ADD DUP1 SLOAD DUP1 PUSH2 0xE70 JUMPI INVALID JUMPDEST PUSH1 0x1 SWAP1 SUB DUP2 DUP2 SWAP1 PUSH1 0x0 MSTORE PUSH1 0x20 PUSH1 0x0 KECCAK256 ADD PUSH1 0x0 SWAP1 SSTORE SWAP1 SSTORE PUSH1 0x0 DUP1 PUSH1 0x1 SWAP1 POP JUMPDEST PUSH1 0x2 DUP4 PUSH1 0x2 DUP2 LT PUSH2 0xE9B JUMPI INVALID JUMPDEST ADD DUP1 SLOAD SWAP1 POP DUP2 LT ISZERO PUSH2 0xF9D JUMPI PUSH1 0x2 DUP4 PUSH1 0x2 DUP2 LT PUSH2 0xEB4 JUMPI INVALID JUMPDEST ADD DUP1 SLOAD SWAP1 POP PUSH1 0x1 DUP3 ADD LT DUP1 ISZERO PUSH2 0xF19 JUMPI POP PUSH2 0xF18 PUSH1 0x2 DUP5 PUSH1 0x2 DUP2 LT PUSH2 0xED5 JUMPI INVALID JUMPDEST ADD PUSH1 0x1 DUP4 ADD DUP2 SLOAD DUP2 LT PUSH2 0xEE4 JUMPI INVALID JUMPDEST SWAP1 PUSH1 0x0 MSTORE PUSH1 0x20 PUSH1 0x0 KECCAK256 ADD SLOAD PUSH1 0x2 DUP6 PUSH1 0x2 DUP2 LT PUSH2 0xEFC JUMPI INVALID JUMPDEST ADD DUP4 DUP2 SLOAD DUP2 LT PUSH2 0xF08 JUMPI INVALID JUMPDEST SWAP1 PUSH1 0x0 MSTORE PUSH1 0x20 PUSH1 0x0 KECCAK256 ADD SLOAD PUSH2 0xB94 JUMP JUMPDEST JUMPDEST ISZERO PUSH2 0xF27 JUMPI DUP1 DUP1 PUSH1 0x1 ADD SWAP2 POP POP JUMPDEST PUSH2 0xF77 PUSH1 0x2 DUP5 PUSH1 0x2 DUP2 LT PUSH2 0xF37 JUMPI INVALID JUMPDEST ADD DUP4 DUP2 SLOAD DUP2 LT PUSH2 0xF43 JUMPI INVALID JUMPDEST SWAP1 PUSH1 0x0 MSTORE PUSH1 0x20 PUSH1 0x0 KECCAK256 ADD SLOAD PUSH1 0x2 DUP6 PUSH1 0x2 DUP2 LT PUSH2 0xF5B JUMPI INVALID JUMPDEST ADD DUP4 DUP2 SLOAD DUP2 LT PUSH2 0xF67 JUMPI INVALID JUMPDEST SWAP1 PUSH1 0x0 MSTORE PUSH1 0x20 PUSH1 0x0 KECCAK256 ADD SLOAD PUSH2 0xB94 JUMP JUMPDEST ISZERO PUSH2 0xF81 JUMPI PUSH2 0xF9D JUMP JUMPDEST PUSH2 0xF8C DUP4 DUP4 DUP4 PUSH2 0xC51 JUMP JUMPDEST DUP1 SWAP2 POP PUSH1 0x1 DUP1 DUP4 SWAP1 SHL ADD SWAP1 POP PUSH2 0xE8E JUMP JUMPDEST POP POP JUMPDEST POP JUMP JUMPDEST PUSH1 0x0 PUSH1 0x2 DUP3 LT PUSH2 0xFAF JUMPI INVALID JUMPDEST PUSH1 0x0 PUSH1 0x2 DUP4 PUSH1 0x2 DUP2 LT PUSH2 0xFBE JUMPI INVALID JUMPDEST ADD DUP1 SLOAD SWAP1 POP GT PUSH2 0xFCA JUMPI INVALID JUMPDEST PUSH1 0x0 PUSH1 0x2 DUP4 PUSH1 0x2 DUP2 LT PUSH2 0xFD9 JUMPI INVALID JUMPDEST ADD PUSH1 0x0 DUP2 SLOAD DUP2 LT PUSH2 0xFE6 JUMPI INVALID JUMPDEST SWAP1 PUSH1 0x0 MSTORE PUSH1 0x20 PUSH1 0x0 KECCAK256 ADD SLOAD DUP2 SLOAD DUP2 LT PUSH2 0xFFB JUMPI INVALID JUMPDEST SWAP1 PUSH1 0x0 MSTORE PUSH1 0x20 PUSH1 0x0 KECCAK256 SWAP1 PUSH1 0x4 MUL ADD PUSH1 0x1 ADD SLOAD SWAP1 POP SWAP2 SWAP1 POP JUMP JUMPDEST PUSH1 0x2 DUP3 LT PUSH2 0x101E JUMPI INVALID JUMPDEST PUSH1 0x0 PUSH1 0x2 DUP4 PUSH1 0x2 DUP2 LT PUSH2 0x102D JUMPI INVALID JUMPDEST ADD DUP1 SLOAD SWAP1 POP GT PUSH2 0x1039 JUMPI INVALID JUMPDEST DUP1 PUSH1 0x0 PUSH1 0x2 DUP5 PUSH1 0x2 DUP2 LT PUSH2 0x1049 JUMPI INVALID JUMPDEST ADD PUSH1 0x0 DUP2 SLOAD DUP2 LT PUSH2 0x1056 JUMPI INVALID JUMPDEST SWAP1 PUSH1 0x0 MSTORE PUSH1 0x20 PUSH1 0x0 KECCAK256 ADD SLOAD DUP2 SLOAD DUP2 LT PUSH2 0x106B JUMPI INVALID JUMPDEST SWAP1 PUSH1 0x0 MSTORE PUSH1 0x20 PUSH1 0x0 KECCAK256 SWAP1 PUSH1 0x4 MUL ADD PUSH1 0x0 ADD PUSH1 0x0 DUP3 DUP3 SLOAD SUB SWAP3 POP POP DUP2 SWAP1 SSTORE POP POP POP JUMP JUMPDEST PUSH1 0x0 PUSH1 0x2 DUP3 LT PUSH2 0x1099 JUMPI INVALID JUMPDEST PUSH1 0x0 PUSH1 0x2 DUP4 PUSH1 0x2 DUP2 LT PUSH2 0x10A8 JUMPI INVALID JUMPDEST ADD DUP1 SLOAD SWAP1 POP GT PUSH2 0x10B4 JUMPI INVALID JUMPDEST PUSH1 0x0 PUSH1 0x2 DUP4 PUSH1 0x2 DUP2 LT PUSH2 0x10C3 JUMPI INVALID JUMPDEST ADD PUSH1 0x0 DUP2 SLOAD DUP2 LT PUSH2 0x10D0 JUMPI INVALID JUMPDEST SWAP1 PUSH1 0x0 MSTORE PUSH1 0x20 PUSH1 0x0 KECCAK256 ADD SLOAD DUP2 SLOAD DUP2 LT PUSH2 0x10E5 JUMPI INVALID JUMPDEST SWAP1 PUSH1 0x0 MSTORE PUSH1 0x20 PUSH1 0x0 KECCAK256 SWAP1 PUSH1 0x4 MUL ADD PUSH1 0x2 ADD PUSH1 0x0 SWAP1 SLOAD SWAP1 PUSH2 0x100 EXP SWAP1 DIV PUSH20 0xFFFFFFFFFFFFFFFFFFFFFFFFFFFFFFFFFFFFFFFF AND SWAP1 POP SWAP2 SWAP1 POP JUMP INVALID PUSH17 0x726F766964652076616C75652065717561 PUSH13 0x20746F20707269636520782071 PUSH22 0x616E746974796F7574636F6D65206973206265747765 PUSH6 0x6E2030202E2E 0x2E KECCAK256 0x4E SSTORE 0x4D 0x5F 0x4F SSTORE SLOAD NUMBER 0x4F 0x4D GASLIMIT MSTORE8 0x2D BALANCE LOG2 PUSH5 0x6970667358 0x22 SLT KECCAK256 0xD0 0xBC 0xC6 SWAP15 ADDRESS 0x29 SUB 0xB5 GAS PUSH22 0xB0D1DC4ED50BB0AE17B939C229A3C63D4FBA9789594A PUSH5 0x736F6C6343 STOP SMOD SUB STOP CALLER "
        },
        "methodIdentifiers": {
          "bid(uint256,uint256,uint256)": "2ac9bf09",
          "cancel(uint256,uint256)": "00efa895",
          "cancelAll()": "18cb2b18",
          "redeem()": "be040fb0"
        }
      }
    }
  }
}