{
  "_format": "hh-sol-artifact-1",
  "contractName": "Oracle1",
  "sourceName": "contracts/PredictionMarket.sol",
  "abi": [
    {
      "inputs": [
        {
          "internalType": "uint256",
          "name": "outcomes",
          "type": "uint256"
        },
        {
          "internalType": "address",
          "name": "_owner",
          "type": "address"
        },
        {
          "internalType": "address",
          "name": "report_addr1",
          "type": "address"
        },
        {
          "internalType": "address",
          "name": "report_addr2",
          "type": "address"
        },
        {
          "internalType": "address",
          "name": "report_addr3",
          "type": "address"
        }
      ],
      "stateMutability": "nonpayable",
      "type": "constructor"
    },
    {
      "inputs": [],
      "name": "clear",
      "outputs": [],
      "stateMutability": "nonpayable",
      "type": "function"
    },
    {
      "inputs": [
        {
          "internalType": "uint256",
          "name": "won1",
          "type": "uint256"
        }
      ],
      "name": "report1",
      "outputs": [],
      "stateMutability": "nonpayable",
      "type": "function"
    },
    {
      "inputs": [
        {
          "internalType": "uint256",
          "name": "won2",
          "type": "uint256"
        }
      ],
      "name": "report2",
      "outputs": [],
      "stateMutability": "nonpayable",
      "type": "function"
    },
    {
      "inputs": [
        {
          "internalType": "uint256",
          "name": "won3",
          "type": "uint256"
        }
      ],
      "name": "report3",
      "outputs": [],
      "stateMutability": "nonpayable",
      "type": "function"
    },
    {
      "inputs": [],
      "name": "winner",
      "outputs": [
        {
          "internalType": "uint256",
          "name": "",
          "type": "uint256"
        }
      ],
      "stateMutability": "view",
      "type": "function"
    }
  ],
  "bytecode": "0x608060405234801561001057600080fd5b50604051610d39380380610d39833981810160405260a081101561003357600080fd5b8101908080519060200190929190805190602001909291908051906020019092919080519060200190929190805190602001909291905050508460008190555083600760006101000a81548173ffffffffffffffffffffffffffffffffffffffff021916908373ffffffffffffffffffffffffffffffffffffffff1602179055508260046000600381106100c357fe5b0160006101000a81548173ffffffffffffffffffffffffffffffffffffffff021916908373ffffffffffffffffffffffffffffffffffffffff16021790555081600460016003811061011157fe5b0160006101000a81548173ffffffffffffffffffffffffffffffffffffffff021916908373ffffffffffffffffffffffffffffffffffffffff16021790555080600460026003811061015f57fe5b0160006101000a81548173ffffffffffffffffffffffffffffffffffffffff021916908373ffffffffffffffffffffffffffffffffffffffff160217905550600060086000600381106101ae57fe5b0181905550600060086001600381106101c357fe5b0181905550600060086002600381106101d857fe5b01819055505050505050610b48806101f16000396000f3fe608060405234801561001057600080fd5b50600436106100575760003560e01c8063313e488d1461005c57806336166b6f1461008a57806352efea6e146100b8578063b0f7da64146100c2578063dfbf53ae146100f0575b600080fd5b6100886004803603602081101561007257600080fd5b810190808035906020019092919050505061010e565b005b6100b6600480360360208110156100a057600080fd5b810190808035906020019092919050505061030f565b005b6100c0610511565b005b6100ee600480360360208110156100d857600080fd5b8101908080359060200190929190505050610623565b005b6100f8610825565b6040518082815260200191505060405180910390f35b600460016003811061011c57fe5b0160009054906101000a900473ffffffffffffffffffffffffffffffffffffffff1673ffffffffffffffffffffffffffffffffffffffff163373ffffffffffffffffffffffffffffffffffffffff16146101de576040517f08c379a000000000000000000000000000000000000000000000000000000000815260040180806020018281038252600e8152602001807f4e6f74207265706f72746572203200000000000000000000000000000000000081525060200191505060405180910390fd5b6000548110610255576040517f08c379a00000000000000000000000000000000000000000000000000000000081526004018080602001828103825260148152602001807f526573756c74206f7574206f6620626f756e647300000000000000000000000081525060200191505060405180910390fd5b6000600860016003811061026557fe5b0154146102da576040517f08c379a00000000000000000000000000000000000000000000000000000000081526004018080602001828103825260188152602001807f4f6e6c79206f6e6520696e707574207065726d6974746564000000000000000081525060200191505060405180910390fd5b60086001600381106102e857fe5b0160008154809291906001019190505550806001806003811061030757fe5b018190555050565b600460026003811061031d57fe5b0160009054906101000a900473ffffffffffffffffffffffffffffffffffffffff1673ffffffffffffffffffffffffffffffffffffffff163373ffffffffffffffffffffffffffffffffffffffff16146103df576040517f08c379a000000000000000000000000000000000000000000000000000000000815260040180806020018281038252600e8152602001807f4e6f74207265706f72746572203300000000000000000000000000000000000081525060200191505060405180910390fd5b6000548110610456576040517f08c379a00000000000000000000000000000000000000000000000000000000081526004018080602001828103825260148152602001807f526573756c74206f7574206f6620626f756e647300000000000000000000000081525060200191505060405180910390fd5b6000600860026003811061046657fe5b0154146104db576040517f08c379a00000000000000000000000000000000000000000000000000000000081526004018080602001828103825260188152602001807f4f6e6c79206f6e6520696e707574207065726d6974746564000000000000000081525060200191505060405180910390fd5b60086002600381106104e957fe5b016000815480929190600101919050555080600160026003811061050957fe5b018190555050565b600760009054906101000a900473ffffffffffffffffffffffffffffffffffffffff1673ffffffffffffffffffffffffffffffffffffffff163373ffffffffffffffffffffffffffffffffffffffff16146105d4576040517f08c379a00000000000000000000000000000000000000000000000000000000081526004018080602001828103825260148152602001807f4f6e6c79206f776e65722063616e20636c65617200000000000000000000000081525060200191505060405180910390fd5b600160006105e29190610a99565b600060086000600381106105f257fe5b01819055506000600860016003811061060757fe5b01819055506000600860026003811061061c57fe5b0181905550565b600460006003811061063157fe5b0160009054906101000a900473ffffffffffffffffffffffffffffffffffffffff1673ffffffffffffffffffffffffffffffffffffffff163373ffffffffffffffffffffffffffffffffffffffff16146106f3576040517f08c379a000000000000000000000000000000000000000000000000000000000815260040180806020018281038252600e8152602001807f4e6f74207265706f72746572203100000000000000000000000000000000000081525060200191505060405180910390fd5b600054811061076a576040517f08c379a00000000000000000000000000000000000000000000000000000000081526004018080602001828103825260148152602001807f526573756c74206f7574206f6620626f756e647300000000000000000000000081525060200191505060405180910390fd5b6000600860006003811061077a57fe5b0154146107ef576040517f08c379a00000000000000000000000000000000000000000000000000000000081526004018080602001828103825260188152602001807f4f6e6c79206f6e6520696e707574207065726d6974746564000000000000000081525060200191505060405180910390fd5b60086000600381106107fd57fe5b016000815480929190600101919050555080600160006003811061081d57fe5b018190555050565b60006001600860006003811061083757fe5b01541461088f576040517f08c379a0000000000000000000000000000000000000000000000000000000008152600401808060200182810382526021815260200180610af26021913960400191505060405180910390fd5b6001600860016003811061089f57fe5b0154146108f7576040517f08c379a0000000000000000000000000000000000000000000000000000000008152600401808060200182810382526022815260200180610ad06022913960400191505060405180910390fd5b6001600860026003811061090757fe5b01541461095f576040517f08c379a0000000000000000000000000000000000000000000000000000000008152600401808060200182810382526021815260200180610aaf6021913960400191505060405180910390fd5b6000606060005467ffffffffffffffff8111801561097c57600080fd5b506040519080825280602002602001820160405280156109ab5781602001602082028036833780820191505090505b5090506000806000905060005b6003811015610a3e57600181600381106109ce57fe5b0154925060018484815181106109e057fe5b6020026020010151018484815181106109f557fe5b602002602001018181525050838281518110610a0d57fe5b6020026020010151848481518110610a2157fe5b60200260200101511115610a33578291505b6001810190506109b8565b5060005b8351811015610a8e5781848281518110610a5857fe5b60200260200101511415610a8157838181518110610a7257fe5b60200260200101519450610a8e565b8080600101915050610a42565b508394505050505090565b5060008155600101600081556001016000905556fe5468697264207265706f7274657220646964206e6f7420636f6e747269627574655365636f6e64207265706f7274657220646964206e6f7420636f6e747269627574654669727374207265706f7274657220646964206e6f7420636f6e74726962757465a2646970667358221220061844c629b215771a899cab5487988a0986cd39a000d19bb31cd7d5f462039964736f6c63430007030033",
  "linkReferences": {},
  "deployedLinkReferences": {}
}