{
  "_format": "hh-sol-artifact-1",
  "contractName": "PredictionMarket",
  "sourceName": "contracts/PredictionMarket.sol",
  "abi": [
    {
      "inputs": [
        {
          "internalType": "address",
          "name": "oracle_addr",
          "type": "address"
        }
      ],
      "stateMutability": "nonpayable",
      "type": "constructor"
    },
    {
      "inputs": [
        {
          "internalType": "uint256",
          "name": "price",
          "type": "uint256"
        },
        {
          "internalType": "uint256",
          "name": "quantity",
          "type": "uint256"
        },
        {
          "internalType": "uint256",
          "name": "outcome",
          "type": "uint256"
        }
      ],
      "name": "bid",
      "outputs": [
        {
          "internalType": "uint256",
          "name": "",
          "type": "uint256"
        }
      ],
      "stateMutability": "payable",
      "type": "function"
    },
    {
      "inputs": [
        {
          "internalType": "uint256",
          "name": "id",
          "type": "uint256"
        },
        {
          "internalType": "uint256",
          "name": "quantity",
          "type": "uint256"
        }
      ],
      "name": "cancel",
      "outputs": [
        {
          "internalType": "uint256",
          "name": "",
          "type": "uint256"
        }
      ],
      "stateMutability": "nonpayable",
      "type": "function"
    },
    {
      "inputs": [],
      "name": "cancelAll",
      "outputs": [
        {
          "internalType": "uint256",
          "name": "",
          "type": "uint256"
        }
      ],
      "stateMutability": "nonpayable",
      "type": "function"
    },
    {
      "inputs": [],
      "name": "redeem",
      "outputs": [
        {
          "internalType": "uint256",
          "name": "",
          "type": "uint256"
        }
      ],
      "stateMutability": "nonpayable",
      "type": "function"
    }
  ],
  "bytecode": "0x608060405234801561001057600080fd5b506040516112373803806112378339818101604052602081101561003357600080fd5b810190808051906020019092919050505080600560006101000a81548173ffffffffffffffffffffffffffffffffffffffff021916908373ffffffffffffffffffffffffffffffffffffffff160217905550506111a2806100956000396000f3fe60806040526004361061003e5760003560e01c8062efa8951461004357806318cb2b181461009c5780632ac9bf09146100c7578063be040fb01461011d575b600080fd5b34801561004f57600080fd5b506100866004803603604081101561006657600080fd5b810190808035906020019092919080359060200190929190505050610148565b6040518082815260200191505060405180910390f35b3480156100a857600080fd5b506100b16102a6565b6040518082815260200191505060405180910390f35b610107600480360360608110156100dd57600080fd5b8101908080359060200190929190803590602001909291908035906020019092919050505061038b565b6040518082815260200191505060405180910390f35b34801561012957600080fd5b506101326106a4565b6040518082815260200191505060405180910390f35b60008080549050831061015a57600080fd5b3373ffffffffffffffffffffffffffffffffffffffff166000848154811061017e57fe5b906000526020600020906004020160020160009054906101000a900473ffffffffffffffffffffffffffffffffffffffff1673ffffffffffffffffffffffffffffffffffffffff16146101d057600080fd5b6101f882600085815481106101e157fe5b906000526020600020906004020160000154610869565b9150816000848154811061020857fe5b9060005260206000209060040201600001600082825403925050819055506000826000858154811061023657fe5b9060005260206000209060040201600101540290508047101561025557fe5b3373ffffffffffffffffffffffffffffffffffffffff166108fc829081150290604051600060405180830381858888f1935050505015801561029b573d6000803e3d6000fd5b508091505092915050565b6000806000905060005b600160003373ffffffffffffffffffffffffffffffffffffffff1673ffffffffffffffffffffffffffffffffffffffff1681526020019081526020016000208054905081101561038357610372600160003373ffffffffffffffffffffffffffffffffffffffff1673ffffffffffffffffffffffffffffffffffffffff168152602001908152602001600020828154811061034757fe5b9060005260206000200154790100000000000000000000000000000000000000000000000000610148565b8201915080806001019150506102b0565b508091505090565b60006103e8670de0b6b3a76400008502816103a257fe5b0493506000841161041b576040517f08c379a00000000000000000000000000000000000000000000000000000000081526004018080602001828103825260168152602001807f7072696365206d75737420626520706f7369746976650000000000000000000081525060200191505060405180910390fd5b60008311610491576040517f08c379a00000000000000000000000000000000000000000000000000000000081526004018080602001828103825260198152602001807f7175616e74697479206d75737420626520706f7369746976650000000000000081525060200191505060405180910390fd5b600282106104ea576040517f08c379a00000000000000000000000000000000000000000000000000000000081526004018080602001828103825260278152602001806111466027913960400191505060405180910390fd5b8284023414610544576040517f08c379a000000000000000000000000000000000000000000000000000000000815260040180806020018281038252602781526020018061111f6027913960400191505060405180910390fd5b600080805490509050600060405180608001604052808681526020018781526020013373ffffffffffffffffffffffffffffffffffffffff168152602001858152509080600181540180825580915050600190039060005260206000209060040201600090919091909150600082015181600001556020820151816001015560408201518160020160006101000a81548173ffffffffffffffffffffffffffffffffffffffff021916908373ffffffffffffffffffffffffffffffffffffffff160217905550606082015181600301555050600160003373ffffffffffffffffffffffffffffffffffffffff1673ffffffffffffffffffffffffffffffffffffffff1681526020019081526020016000208190806001815401808255809150506001900390600052602060002001600090919091909150556106868382610883565b5b61068f610999565b1561069957610687565b809150509392505050565b600080600560009054906101000a900473ffffffffffffffffffffffffffffffffffffffff16905060008173ffffffffffffffffffffffffffffffffffffffff1663dfbf53ae6040518163ffffffff1660e01b815260040160206040518083038186803b15801561071457600080fd5b505afa158015610728573d6000803e3d6000fd5b505050506040513d602081101561073e57600080fd5b810190808051906020019092919050505090506002811061075e57600080fd5b6000600460003373ffffffffffffffffffffffffffffffffffffffff1673ffffffffffffffffffffffffffffffffffffffff16815260200190815260200160002082600281106107aa57fe5b015490506000600460003373ffffffffffffffffffffffffffffffffffffffff1673ffffffffffffffffffffffffffffffffffffffff16815260200190815260200160002083600281106107fa57fe5b0181905550600067016345785d8a0000820290508047101561081857fe5b3373ffffffffffffffffffffffffffffffffffffffff166108fc829081150290604051600060405180830381858888f1935050505015801561085e573d6000803e3d6000fd5b508094505050505090565b600081831015610879578261087b565b815b905092915050565b600080549050811061089157fe5b6002821061089b57fe5b81600082815481106108a957fe5b906000526020600020906004020160030154146108c257fe5b600282600281106108cf57fe5b01819080600181540180825580915050600190039060005260206000200160009091909190915055600060016002846002811061090857fe5b01805490500390505b60008111156109945760006001808303901c90506109756002856002811061093557fe5b01828154811061094157fe5b90600052602060002001546002866002811061095957fe5b01848154811061096557fe5b9060005260206000200154610b94565b156109805750610994565b61098b848284610c51565b80915050610911565b505050565b600080600090505b6002811015610a0b575b6109b481610d3a565b1580156109c9575060006109c782610d62565b145b156109dc576109d781610dd3565b6109ab565b6109e581610d3a565b806109f8575060006109f682610d62565b115b6109fe57fe5b80806001019150506109a1565b50600080790100000000000000000000000000000000000000000000000000905060005b6002811015610a7457610a4181610d3a565b610a6757610a4e81610fa3565b83019250610a6482610a5f83610d62565b610869565b91505b8080600101915050610a2f565b506000821480610a9d575079010000000000000000000000000000000000000000000000000081145b15610adc57600082148015610acb575079010000000000000000000000000000000000000000000000000081145b610ad157fe5b600092505050610b91565b67016345785d8a0000821015610af757600092505050610b91565b60005b6002811015610b8957610b0c81610d3a565b610b7c57610b1a8183611014565b8160046000610b288461108d565b73ffffffffffffffffffffffffffffffffffffffff1673ffffffffffffffffffffffffffffffffffffffff1681526020019081526020016000208260028110610b6d57fe5b01600082825401925050819055505b8080600101915050610afa565b506001925050505b90565b600080805490508310610ba357fe5b6000805490508210610bb157fe5b81831415610bbb57fe5b60008281548110610bc857fe5b90600052602060002090600402016001015460008481548110610be757fe5b9060005260206000209060040201600101541415610c09578183109050610c4b565b60008281548110610c1657fe5b90600052602060002090600402016001015460008481548110610c3557fe5b9060005260206000209060040201600101541190505b92915050565b60028310610c5b57fe5b60028360028110610c6857fe5b01805490508210610c7557fe5b60028360028110610c8257fe5b01805490508110610c8f57fe5b80821415610c9957fe5b600060028460028110610ca857fe5b018381548110610cb457fe5b9060005260206000200154905060028460028110610cce57fe5b018281548110610cda57fe5b906000526020600020015460028560028110610cf257fe5b018481548110610cfe57fe5b90600052602060002001819055508060028560028110610d1a57fe5b018381548110610d2657fe5b906000526020600020018190555050505050565b600060028210610d4657fe5b600060028360028110610d5557fe5b0180549050149050919050565b600060028210610d6e57fe5b600060028360028110610d7d57fe5b018054905011610d8957fe5b600060028360028110610d9857fe5b01600081548110610da557fe5b906000526020600020015481548110610dba57fe5b9060005260206000209060040201600001549050919050565b60028110610ddd57fe5b610de681610d3a565b15610ded57fe5b600160028260028110610dfc57fe5b01805490501415610e395760028160028110610e1457fe5b01805480610e1e57fe5b60019003818190600052602060002001600090559055610fa0565b610e59816000600160028560028110610e4e57fe5b018054905003610c51565b60028160028110610e6657fe5b01805480610e7057fe5b60019003818190600052602060002001600090559055600080600190505b60028360028110610e9b57fe5b0180549050811015610f9d5760028360028110610eb457fe5b018054905060018201108015610f195750610f1860028460028110610ed557fe5b016001830181548110610ee457fe5b906000526020600020015460028560028110610efc57fe5b018381548110610f0857fe5b9060005260206000200154610b94565b5b15610f275780806001019150505b610f7760028460028110610f3757fe5b018381548110610f4357fe5b906000526020600020015460028560028110610f5b57fe5b018381548110610f6757fe5b9060005260206000200154610b94565b15610f8157610f9d565b610f8c838383610c51565b80915060018083901b019050610e8e565b50505b50565b600060028210610faf57fe5b600060028360028110610fbe57fe5b018054905011610fca57fe5b600060028360028110610fd957fe5b01600081548110610fe657fe5b906000526020600020015481548110610ffb57fe5b9060005260206000209060040201600101549050919050565b6002821061101e57fe5b60006002836002811061102d57fe5b01805490501161103957fe5b8060006002846002811061104957fe5b0160008154811061105657fe5b90600052602060002001548154811061106b57fe5b9060005260206000209060040201600001600082825403925050819055505050565b60006002821061109957fe5b6000600283600281106110a857fe5b0180549050116110b457fe5b6000600283600281106110c357fe5b016000815481106110d057fe5b9060005260206000200154815481106110e557fe5b906000526020600020906004020160020160009054906101000a900473ffffffffffffffffffffffffffffffffffffffff16905091905056fe70726f766964652076616c756520657175616c20746f2070726963652078207175616e746974796f7574636f6d65206973206265747765656e2030202e2e2e204e554d5f4f5554434f4d45532d31a2646970667358221220d0bcc69e302903b55a75b0d1dc4ed50bb0ae17b939c229a3c63d4fba9789594a64736f6c63430007030033",
  "linkReferences": {},
  "deployedLinkReferences": {}
}